{
  "_format": "hh-sol-artifact-1",
  "contractName": "Marketplace",
  "sourceName": "contracts/Marketplace.sol",
  "abi": [
    {
      "anonymous": false,
      "inputs": [
        {
          "indexed": false,
          "internalType": "uint256",
          "name": "id",
          "type": "uint256"
        },
        {
          "indexed": false,
          "internalType": "string",
          "name": "name",
          "type": "string"
        },
        {
          "indexed": false,
          "internalType": "uint256",
          "name": "price",
          "type": "uint256"
        },
        {
          "indexed": false,
          "internalType": "address",
          "name": "owner",
          "type": "address"
        }
      ],
      "name": "ProductAdded",
      "type": "event"
    },
    {
      "anonymous": false,
      "inputs": [
        {
          "indexed": false,
          "internalType": "uint256",
          "name": "id",
          "type": "uint256"
        },
        {
          "indexed": false,
          "internalType": "address",
          "name": "buyer",
          "type": "address"
        },
        {
          "indexed": false,
          "internalType": "uint256",
          "name": "price",
          "type": "uint256"
        }
      ],
      "name": "ProductBought",
      "type": "event"
    },
    {
      "anonymous": false,
      "inputs": [
        {
          "indexed": false,
          "internalType": "uint256",
          "name": "id",
          "type": "uint256"
        }
      ],
      "name": "ProductRemoved",
      "type": "event"
    },
    {
      "inputs": [
        {
          "internalType": "string",
          "name": "name",
          "type": "string"
        },
        {
          "internalType": "uint256",
          "name": "price",
          "type": "uint256"
        }
      ],
      "name": "addProduct",
      "outputs": [],
      "stateMutability": "nonpayable",
      "type": "function"
    },
    {
      "inputs": [
        {
          "internalType": "uint256",
          "name": "id",
          "type": "uint256"
        }
      ],
      "name": "buyProduct",
      "outputs": [],
      "stateMutability": "payable",
      "type": "function"
    },
    {
      "inputs": [],
      "name": "nextId",
      "outputs": [
        {
          "internalType": "uint256",
          "name": "",
          "type": "uint256"
        }
      ],
      "stateMutability": "view",
      "type": "function"
    },
    {
      "inputs": [
        {
          "internalType": "uint256",
          "name": "",
          "type": "uint256"
        }
      ],
      "name": "products",
      "outputs": [
        {
          "internalType": "uint256",
          "name": "id",
          "type": "uint256"
        },
        {
          "internalType": "string",
          "name": "name",
          "type": "string"
        },
        {
          "internalType": "uint256",
          "name": "price",
          "type": "uint256"
        },
        {
          "internalType": "address payable",
          "name": "owner",
          "type": "address"
        },
        {
          "internalType": "bool",
          "name": "isSold",
          "type": "bool"
        }
      ],
      "stateMutability": "view",
      "type": "function"
    },
    {
      "inputs": [
        {
          "internalType": "uint256",
          "name": "id",
          "type": "uint256"
        }
      ],
      "name": "removeProduct",
      "outputs": [],
      "stateMutability": "nonpayable",
      "type": "function"
    }
  ],
  "bytecode": "0x60806040526001600055348015601457600080fd5b506112d6806100246000396000f3fe60806040526004361061004a5760003560e01c80635ee95cae1461004f57806361b8ce8c146100785780637acc0b20146100a35780638642269e146100e4578063b15247d914610100575b600080fd5b34801561005b57600080fd5b5061007660048036038101906100719190610885565b610129565b005b34801561008457600080fd5b5061008d610317565b60405161009a91906108c1565b60405180910390f35b3480156100af57600080fd5b506100ca60048036038101906100c59190610885565b61031d565b6040516100db9594939291906109c8565b60405180910390f35b6100fe60048036038101906100f99190610885565b610408565b005b34801561010c57600080fd5b5061012760048036038101906101229190610b57565b610657565b005b60006001600083815260200190815260200160002090506000816000015403610187576040517f08c379a000000000000000000000000000000000000000000000000000000000815260040161017e90610bff565b60405180910390fd5b3373ffffffffffffffffffffffffffffffffffffffff168160030160009054906101000a900473ffffffffffffffffffffffffffffffffffffffff1673ffffffffffffffffffffffffffffffffffffffff1614610219576040517f08c379a000000000000000000000000000000000000000000000000000000000815260040161021090610c6b565b60405180910390fd5b8060030160149054906101000a900460ff161561026b576040517f08c379a000000000000000000000000000000000000000000000000000000000815260040161026290610cd7565b60405180910390fd5b6001600083815260200190815260200160002060008082016000905560018201600061029791906107de565b60028201600090556003820160006101000a81549073ffffffffffffffffffffffffffffffffffffffff02191690556003820160146101000a81549060ff021916905550507f07015631cff457b5b13492c2045e70c6305a0a4aa773e432e79abbe2cf52c1eb8260405161030b91906108c1565b60405180910390a15050565b60005481565b600160205280600052604060002060009150905080600001549080600101805461034690610d26565b80601f016020809104026020016040519081016040528092919081815260200182805461037290610d26565b80156103bf5780601f10610394576101008083540402835291602001916103bf565b820191906000526020600020905b8154815290600101906020018083116103a257829003601f168201915b5050505050908060020154908060030160009054906101000a900473ffffffffffffffffffffffffffffffffffffffff16908060030160149054906101000a900460ff16905085565b60006001600083815260200190815260200160002090506000816000015403610466576040517f08c379a000000000000000000000000000000000000000000000000000000000815260040161045d90610bff565b60405180910390fd5b806002015434146104ac576040517f08c379a00000000000000000000000000000000000000000000000000000000081526004016104a390610da3565b60405180910390fd5b8060030160149054906101000a900460ff16156104fe576040517f08c379a00000000000000000000000000000000000000000000000000000000081526004016104f590610e0f565b60405180910390fd5b3373ffffffffffffffffffffffffffffffffffffffff168160030160009054906101000a900473ffffffffffffffffffffffffffffffffffffffff1673ffffffffffffffffffffffffffffffffffffffff1603610590576040517f08c379a000000000000000000000000000000000000000000000000000000000815260040161058790610e7b565b60405180910390fd5b60018160030160146101000a81548160ff0219169083151502179055508060030160009054906101000a900473ffffffffffffffffffffffffffffffffffffffff1673ffffffffffffffffffffffffffffffffffffffff166108fc349081150290604051600060405180830381858888f19350505050158015610617573d6000803e3d6000fd5b507fdba962d6e87a6b42891a3279e7cc849950ecc1d1f82d9942faeb0be2e98094fe82333460405161064b93929190610ebc565b60405180910390a15050565b6000811161069a576040517f08c379a000000000000000000000000000000000000000000000000000000000815260040161069190610f3f565b60405180910390fd5b6040518060a0016040528060005481526020018381526020018281526020013373ffffffffffffffffffffffffffffffffffffffff16815260200160001515815250600160008054815260200190815260200160002060008201518160000155602082015181600101908161070f919061110b565b506040820151816002015560608201518160030160006101000a81548173ffffffffffffffffffffffffffffffffffffffff021916908373ffffffffffffffffffffffffffffffffffffffff16021790555060808201518160030160146101000a81548160ff0219169083151502179055509050507f52402cafb2ecec722b103e8f203f83362148c168659dc96678c2c6850d12dd9f6000548383336040516107bb94939291906111dd565b60405180910390a16000808154809291906107d590611258565b91905055505050565b5080546107ea90610d26565b6000825580601f106107fc575061081b565b601f01602090049060005260206000209081019061081a919061081e565b5b50565b5b8082111561083757600081600090555060010161081f565b5090565b6000604051905090565b600080fd5b600080fd5b6000819050919050565b6108628161084f565b811461086d57600080fd5b50565b60008135905061087f81610859565b92915050565b60006020828403121561089b5761089a610845565b5b60006108a984828501610870565b91505092915050565b6108bb8161084f565b82525050565b60006020820190506108d660008301846108b2565b92915050565b600081519050919050565b600082825260208201905092915050565b60005b838110156109165780820151818401526020810190506108fb565b60008484015250505050565b6000601f19601f8301169050919050565b600061093e826108dc565b61094881856108e7565b93506109588185602086016108f8565b61096181610922565b840191505092915050565b600073ffffffffffffffffffffffffffffffffffffffff82169050919050565b60006109978261096c565b9050919050565b6109a78161098c565b82525050565b60008115159050919050565b6109c2816109ad565b82525050565b600060a0820190506109dd60008301886108b2565b81810360208301526109ef8187610933565b90506109fe60408301866108b2565b610a0b606083018561099e565b610a1860808301846109b9565b9695505050505050565b600080fd5b600080fd5b7f4e487b7100000000000000000000000000000000000000000000000000000000600052604160045260246000fd5b610a6482610922565b810181811067ffffffffffffffff82111715610a8357610a82610a2c565b5b80604052505050565b6000610a9661083b565b9050610aa28282610a5b565b919050565b600067ffffffffffffffff821115610ac257610ac1610a2c565b5b610acb82610922565b9050602081019050919050565b82818337600083830152505050565b6000610afa610af584610aa7565b610a8c565b905082815260208101848484011115610b1657610b15610a27565b5b610b21848285610ad8565b509392505050565b600082601f830112610b3e57610b3d610a22565b5b8135610b4e848260208601610ae7565b91505092915050565b60008060408385031215610b6e57610b6d610845565b5b600083013567ffffffffffffffff811115610b8c57610b8b61084a565b5b610b9885828601610b29565b9250506020610ba985828601610870565b9150509250929050565b7f50726f6475637420646f6573206e6f7420657869737400000000000000000000600082015250565b6000610be96016836108e7565b9150610bf482610bb3565b602082019050919050565b60006020820190508181036000830152610c1881610bdc565b9050919050565b7f4e6f74206f776e65720000000000000000000000000000000000000000000000600082015250565b6000610c556009836108e7565b9150610c6082610c1f565b602082019050919050565b60006020820190508181036000830152610c8481610c48565b9050919050565b7f43616e6e6f742072656d6f766520736f6c642070726f64756374000000000000600082015250565b6000610cc1601a836108e7565b9150610ccc82610c8b565b602082019050919050565b60006020820190508181036000830152610cf081610cb4565b9050919050565b7f4e487b7100000000000000000000000000000000000000000000000000000000600052602260045260246000fd5b60006002820490506001821680610d3e57607f821691505b602082108103610d5157610d50610cf7565b5b50919050565b7f496e636f72726563742070726963650000000000000000000000000000000000600082015250565b6000610d8d600f836108e7565b9150610d9882610d57565b602082019050919050565b60006020820190508181036000830152610dbc81610d80565b9050919050565b7f416c726561647920736f6c640000000000000000000000000000000000000000600082015250565b6000610df9600c836108e7565b9150610e0482610dc3565b602082019050919050565b60006020820190508181036000830152610e2881610dec565b9050919050565b7f4f776e65722063616e6e6f742062757900000000000000000000000000000000600082015250565b6000610e656010836108e7565b9150610e7082610e2f565b602082019050919050565b60006020820190508181036000830152610e9481610e58565b9050919050565b6000610ea68261096c565b9050919050565b610eb681610e9b565b82525050565b6000606082019050610ed160008301866108b2565b610ede6020830185610ead565b610eeb60408301846108b2565b949350505050565b7f5072696365206d757374206265203e2030000000000000000000000000000000600082015250565b6000610f296011836108e7565b9150610f3482610ef3565b602082019050919050565b60006020820190508181036000830152610f5881610f1c565b9050919050565b60008190508160005260206000209050919050565b60006020601f8301049050919050565b600082821b905092915050565b600060088302610fc17fffffffffffffffffffffffffffffffffffffffffffffffffffffffffffffffff82610f84565b610fcb8683610f84565b95508019841693508086168417925050509392505050565b6000819050919050565b6000611008611003610ffe8461084f565b610fe3565b61084f565b9050919050565b6000819050919050565b61102283610fed565b61103661102e8261100f565b848454610f91565b825550505050565b600090565b61104b61103e565b611056818484611019565b505050565b5b8181101561107a5761106f600082611043565b60018101905061105c565b5050565b601f8211156110bf5761109081610f5f565b61109984610f74565b810160208510156110a8578190505b6110bc6110b485610f74565b83018261105b565b50505b505050565b600082821c905092915050565b60006110e2600019846008026110c4565b1980831691505092915050565b60006110fb83836110d1565b9150826002028217905092915050565b611114826108dc565b67ffffffffffffffff81111561112d5761112c610a2c565b5b6111378254610d26565b61114282828561107e565b600060209050601f8311600181146111755760008415611163578287015190505b61116d85826110ef565b8655506111d5565b601f19841661118386610f5f565b60005b828110156111ab57848901518255600182019150602085019450602081019050611186565b868310156111c857848901516111c4601f8916826110d1565b8355505b6001600288020188555050505b505050505050565b60006080820190506111f260008301876108b2565b81810360208301526112048186610933565b905061121360408301856108b2565b6112206060830184610ead565b95945050505050565b7f4e487b7100000000000000000000000000000000000000000000000000000000600052601160045260246000fd5b60006112638261084f565b91507fffffffffffffffffffffffffffffffffffffffffffffffffffffffffffffffff820361129557611294611229565b5b60018201905091905056fea2646970667358221220caaf84a908448584e1dd9fd6a6d5dc8e895e412aab3649546ec15119c993805264736f6c634300081c0033",
  "linkReferences": {},
  "deployedLinkReferences": {}
}